:1000000010C01FC01EC01DC01CC01BC01AC019C01C
:1000100019C017C016C015C014C013C012C011C03B
:1000200010C011241FBECFE5D2E0DEBFCDBF10E06F
:10003000A0E6B0E001C01D92A436B107E1F726D0DA
:1000400066C0DECF1F920F920FB60F9211248F93CE
:100050009F93EF93FF9380916300833048F49FB1A7
:10006000E82FF0E0E05AFF4F90838F5F80936300AA
:1000700080916300833009F415BAFF91EF919F914D
:100080008F910F900FBE0F901F90189580EC8DB937
:1000900081E087B98FEF84BB85BB789480E023E053
:1000A00030E02899FECF289BFECF90E0FC01E05A7B
:1000B000FF4F4081409545BB0196B90101D0F1CF7A
:1000C00097FB092E07260AD077FD04D00CD006D066
:1000D00000201AF4709561957F4F0895F6F790957A
:1000E00081959F4F0895AA1BBB1B51E107C0AA1F12
:1000F000BB1FA617B70710F0A61BB70B881F991FC9
:100100005A95A9F780959095BC01CD010895F89472
:02011000FFCF1F
:00000001FF
