:1000000010C02AC029C028C027C026C025C024C0CF
:1000100024C022C021C020C01FC01EC01DC01CC0E3
:100020001BC011241FBECFE5D2E0DEBFCDBF10E064
:10003000A0E6B0E0ECEEF0E002C005900D92A43630
:10004000B107D9F710E0A4E6B0E001C01D92A636D2
:10005000B107E1F724D048C0D3CF1F920F920FB65B
:100060000F9211248F93EF93FF93C19A80916400B4
:100070008F5F8093640080916400833040F4C19866
:10008000E0916400F0E0E05AFF4F80818FB9FF916A
:10009000EF918F910F900FBE0F901F90189580EBEE
:1000A00087BBB99AC19A81ED8DB93098389A789406
:1000B00081E0289912C090916500992371F4289BE2
:1000C000FECF1092640080936500C198E0916400B7
:1000D000F0E0E05AFF4F90819FB990916400933017
:0C00E00040F310926500E5CFF894FFCFCC
:0400EC004D50530020
:00000001FF
