:1000000010C022C021C020C01FC01EC01DC01CC007
:100010001BC01AC019C018C017C016C015C014C024
:1000200013C011241FBECFE5D2E0DEBFCDBF10E06C
:10003000A0E6B0E0E0E8F0E002C005900D92A43642
:10004000B107D9F702D01AC0DBCF80EB87BB81E5BF
:100050008DB9B99AC19A81E087B92899FECF289BBA
:10006000FECFE0E6F0E0C19881918FB9779BFECF9B
:10007000C19A80E0E336F807B1F7EFCFF894FFCFED
:040080004D5053008C
:00000001FF
