:020000020000FC
:100000000DC000003CC00000000000000000000027
:100010000000000000000000000035C090E032E069
:100020003EBF3FE53DBF3FEF34BB35BB80E885BBFE
:10003000332731BB36B938E032BB31E037B930EA6B
:100040003BBF30E035BF81E07894903009F4FDCFBC
:100050009130D9F751FF09C081FF04C055278DEFBA
:1000600008940BC08795879508C087FD04C05FEF93
:1000700080E8889402C0881F881F85BBE9CF91E083
:10008000839BFECF189590E0289BFECF18950AEF32
:100090001AEF28E02A95F1F71A95D9F70A95C1F7D2
:0200A0000895C1
:00000001FF
