:1000000010C02AC029C028C027C026C025C024C0CF
:1000100024C022C021C020C01FC01EC01DC01CC0E3
:100020001BC011241FBECFE5D2E0DEBFCDBF10E064
:10003000A0E6B0E0E2E4F1E002C005900D92A63641
:10004000B107D9F710E0A6E6B0E001C01D92A836CE
:10005000B107E1F72ED073C0D3CF1F920F920FB626
:100060000F9211242F938F939F93EF93FF939FB140
:100070009A3A21F4809160008FB911C08091660096
:10008000853068F4E82FF0E0E05AFF4F21812FB966
:1000900090838F5F80936600853009F415BAFF91D5
:1000A000EF919F918F912F910F900FBE0F901F9006
:1000B000189584EE8DB980E487BB81E087B98FEF16
:1000C00084BB85BB789425E030E02899FECF289B3F
:1000D000FECF8091670090E0FC01E05AFF4F408125
:1000E000409545BB0196B90103D080936700EDCFE1
:1000F00097FB092E07260AD077FD04D00CD006D036
:1001000000201AF4709561957F4F0895F6F7909549
:1001100081959F4F0895AA1BBB1B51E107C0AA1FE1
:10012000BB1FA617B70710F0A61BB70B881F991F98
:100130005A95A9F780959095BC01CD010895F89442
:02014000FFCFEF
:0601420041424344450068
:00000001FF
