:1000000010C02AC029C028C027C026C025C024C0CF
:1000100023C022C021C020C01FC01EC01DC01CC0E4
:100020001BC011241FBECFE5D2E0DEBFCDBF10E064
:10003000A0E6B0E0E6E3F1E002C005900D92A6363E
:10004000B107D9F710E0A6E6B0E001C01D92A736CF
:10005000B107E1F709D06DC0D3CFC1988FB9779BB5
:10006000FECFC19A8FB108950F931F93CF93DF9363
:1000700080EB87BB85E58DB9B99AC19A83E087B9D2
:100080008FEF84BB85BBC6E0D0E0289918C0289BC1
:10009000FECF8AEAE2DF8CE08A95F1F7000000E605
:1000A00010E0F8018081D9DFF80181938F01FCE035
:1000B000FA95F1F7000080E00636180791F72999C4
:1000C000E4CF299BFECF8091660090E0FC01E05ACE
:1000D000FF4F2081209525BB0196BE0103D0809360
:1000E0006600D3CF97FB092E07260AD077FD04D0F0
:1000F0000CD006D000201AF4709561957F4F0895BA
:10010000F6F7909581959F4F0895AA1BBB1B51E16F
:1001100007C0AA1FBB1FA617B70710F0A61BB70B77
:10012000881F991F5A95A9F780959095BC01CD011C
:060130000895F894FFCFD2
:0601360041546D65676194
:00000001FF
