:1000000010C02AC029C028C027C026C025C024C0CF
:1000100023C023C021C020C01FC01EC01DC01CC0E3
:100020001BC011241FBECFE5D2E0DEBFCDBF10E064
:10003000A0E6B0E0E8E2F1E002C005900D92A23641
:10004000B107D9F710E0A2E6B0E001C01D92A636D4
:10005000B107E1F721D066C0D3CF1F920F920FB640
:100060000F9211248F939F93EF93FF9380916500DC
:10007000833048F49CB1E82FF0E0EE59FF4F9083B5
:100080008F5F80936500FF91EF919F918F910F900B
:100090000FBE0F901F90189510BC87E189B980E9B9
:1000A0008AB986E880BD81E088BB8FEF84BB85BBC1
:1000B000789480E023E030E0B099FECFB09BFECF93
:1000C00090E0FC01EE59FF4F4081409545BB019601
:1000D000B90101D0F1CF97FB092E07260AD077FD91
:1000E00004D00CD006D000201AF4709561957F4F93
:1000F0000895F6F7909581959F4F0895AA1BBB1B15
:1001000051E107C0AA1FBB1FA617B70710F0A61B17
:10011000B70B881F991F5A95A9F780959095BC0138
:08012000CD010895F894FFCF12
:020128001700BE
:00000001FF
