:1000000010C022C021C020C01FC01EC01DC01CC007
:100010001BC01AC019C018C017C016C015C014C024
:1000200013C011241FBECFE5D2E0DEBFCDBF10E06C
:10003000A0E6B0E0EEE7F0E002C005900D92A63633
:10004000B107D9F702D019C0DBCF10BC87E189B95D
:1000500088E08AB986E880BD81E088BBB099FECF90
:10006000B09BFECFE2E6F0E05D9BFECF81918CB9C4
:0E00700080E0E536F807C1F7F1CFF894FFCF36
:06007E001700415652007C
:00000001FF
