:020000020000FC
:100000000DC0000000000000000000000000000023
:100010000000000000000000000015C002E00EBF5C
:100020000FE50DBF0FEF07BB08BB002706B90ABBE2
:1000300001E007B903E00BBB00E20BBF00E005BF26
:1000400078940000FECFC89B03C0C99B07C0FBCFBC
:10005000C0980AD0C09AC89BFECF1895C0980ED001
:10006000C09AC99BFECF189504E814E624E62A95A9
:10007000F1F71A95D9F70A95C1F70895F5DFF4DF7E
:020080000895E1
:00000001FF
